:1000000014C023C022C021C020C01FC01EC01DC0FC
:100010001CC01BC01AC019C018C017C016C015C01C
:1000200014C013C012C011C010C011241FBECFE5F0
:10003000D1E0DEBFCDBF10E0A0E6B0E001C01D9270
:10004000A436B107E1F702D0EEC0DACF81E690E046
:1000500060E0D8D081E690E0D2D0809162009091AB
:100060006300019690936300809362008F3F910537
:1000700021F410926300109262008FE798E3A1E0F0
:1000800081509040A040E1F700C00000E3CF00C0E5
:1000900000C000C000C000C000C000000895BD98AE
:1000A000BF98C598C7980895BD9AF1DF1DD00895EF
:1000B000BF9AEDDFBD98EBDFBF98E9DFBD9AE7DFC0
:1000C00013D00895082EBD9AE2DF802D0DD088232D
:1000D00011F002D0F8CF0895BF9ABD9AD8DFBF982B
:1000E000D6DFBD98D4DF08950894881F01C0880F1B
:1000F00059F0BF9A18F40000BD9802C0BD9A00C024
:10010000C6DFBF98C4DFF3CFBF9ABD98C0DFBF98EA
:10011000B79BFECF8827B59981E0B9DF992708956D
:10012000882701C081E071E0BF9ABD98B0DFBF9819
:10013000AEDFB79BFECF8894B5990894771FA0F7E0
:10014000BF9A813011F0BD9801C0BD9AA0DFBF9861
:10015000B79BFECF9CDF872F99270895DF93CF931E
:1001600000D0CDB7DEB7FC0180814A836983AADF66
:100170006981862FB9DF4A81842FB6DFADDF0F900A
:100180000F90CF91DF9108950F931F93DF93CF933B
:100190000F92CDB7DEB78C01FC018081698392DFBD
:1001A0006981862FA1DFF80180818F5F81DFB8DF51
:1001B000898392DF89810F90CF91DF911F910F91F9
:1001C0000895EF92FF921F93DF93CF930F92CDB7D5
:1001D000DEB77C01FC018081698374DF6981862F31
:1001E00083DFF701128181817FDF812F7DDF74DF63
:1001F0000F90CF91DF911F91FF90EF90089562E1F2
:10020000E0DF0895CF93DF93EC01605C688362BB0D
:100210006AE040E0A3DF1A821982CE0160E0D1DFFC
:0A022000DF91CF910895F894FFCF0D
:00000001FF
