:100000000C9434000C9446000C9456000C9446005A
:100010000C9446000C9446000C9446000C94460048
:100020000C9446000C9446000C9446000C94460038
:100030000C9446000C9446000C9446000C94460028
:100040000C9446000C9446000C9446000C94460018
:100050000C9446000C9446000C9446000C94460008
:100060000C9446000C94460011241FBECFEFD4E040
:10007000DEBFCDBF11E0A0E0B1E001C01D92AA3506
:10008000B107E1F70E947F000C94E9030C94000093
:1000900086E020E29BB192279BB9E3EDF0E3319734
:1000A000F1F700C000008150A9F708951F920F9248
:1000B0000FB60F9211242F933F934F935F936F933B
:1000C0007F938F939F93AF93BF93EF93FF930E9480
:1000D000480086E591E069E00E949203FF91EF916C
:1000E000BF91AF919F918F917F916F915F914F9150
:1000F0003F912F910F900FBE0F901F9018958AB1CE
:1001000080668AB98BB180668BB90E9448008FE304
:100110009DE0A3E081509040A040E1F700C00000C6
:1001200086E591E060E00E946B0386E591E060E087
:1001300040E80E94800386E591E061E040E00E9493
:10014000800386E591E062E040E80E94800386E556
:1001500091E064E040E80E94800386E591E063E07E
:1001600040E80E94800386E591E065E048E20E9455
:10017000800386E591E066E041E00E948003809183
:100180006900886080936900E99A789486E591E037
:1001900069E00E9492035E98A3EDB0E31197F1F736
:1001A00000C000005E9A86E591E069E00E9492033B
:1001B0008FE79AE1A6E081509040A040E1F700C0AF
:1001C0000000E9CF2091B9002E7F2093B900209143
:1001D000B9002D7F2093B9009C0140E050E068EE0B
:1001E00073E080E090E00E94AC03203128F030E022
:1001F00020513040359527952093B8000895409AB6
:10020000419A589A599A10924701109246011092B9
:1002100049011092480184E690E00E94E200ECEB74
:10022000F0E0808184608083109200018081816091
:1002300080838081806480837894089591E0662330
:1002400009F490E08E7F892B8093BA0008959093F3
:100250004701809346010895909349018093480196
:100260000895ECEBF0E080818F70806A80830895C0
:10027000ECEBF0E080818F70806D80830895809139
:10028000BC0087FFFCCF08958093BB00ECEBF0E04F
:1002900080818F70806880830895882329F0809101
:1002A000BC008F70806C04C08091BC008F7080682F
:1002B0008093BC0008958091BB0008958091B9009F
:1002C0000895909100019923E1F792E09093000145
:1002D0008E7F80930101842F952FDC01E4E0F1E013
:1002E000862F90E08E0F9F1F02C02D912193E8175B
:1002F000F907D9F710920201609303010E943101BE
:1003000008950F931F93DF93CF930F92CDB7DEB76E
:100310008A01909100019923E1F793E09093000105
:1003200081608093010110922401609345016983EB
:100330000E9431016981809100018823E1F7E5E2A3
:10034000F1E070E06E0F7F1F04C08191D8018D93A2
:100350008D01E617F707C9F70F90CF91DF911F9135
:100360000F910895EF92FF921F93DF93CF930F9217
:10037000CDB7DEB7162F7A019091BC009E7F909387
:10038000BC0089830E9431010E943F0189818E7FD8
:100390000E9444010E943F018091B900883169F4B4
:1003A00008C0F70181917F010E9444010E943F0132
:1003B00011501123B1F780E001C081E089830E94D0
:1003C000380189819091BC0094FFFCCF9091BC00D2
:1003D00091609093BC000F90CF91DF911F91FF909F
:1003E000EF900895EF92FF921F93DF93CF930F92B8
:1003F000CDB7DEB7162F7A019091BC009E7F909307
:10040000BC0089830E9431010E943F018981816083
:100410000E9444010E943F018091B9008034C9F4D8
:100420000BC08FEF0E944D010E943F018091BB00E5
:10043000F70181937F011150123098F780E00E94FC
:100440004D010E943F018091BB00F701808380E055
:1004500001C081E089830E9438019091BC009160C5
:100460009093BC0089810F90CF91DF911F91FF90F5
:10047000EF9008951F920F920FB60F9211242F93B1
:100480003F934F935F936F937F938F939F93AF931C
:10049000BF93EF93FF938091B900887F803609F472
:1004A000A0C0813670F5883209F45FC0893298F4B3
:1004B000803109F457C0813138F4882309F4EFC042
:1004C000883009F0F4C04EC0883109F44EC0803243
:1004D00009F0EDC067C0803409F478C0813438F485
:1004E000803309F45FC0883309F0E1C05EC0803515
:1004F00009F460C0883509F449C0883409F0D7C0D0
:1005000051C0883909F483C08939B0F4883709F4B7
:1005100068C0893738F4883609F463C0803709F039
:10052000C6C05FC0883809F472C0803909F45FC062
:10053000803809F0BCC05BC0803B09F47EC0813BC1
:1005400038F4803A09F467C0883A09F0B0C075C041
:10055000803C09F49FC0883C09F49CC0883B09F0AA
:10056000A6C07CC0809101010EC0909102018091D3
:1005700003019817B8F4E92FF0E0EC5FFE4F80819B
:100580009F5F909302010E94440191C080912401D9
:100590009091BB00E82FF0E0EB5DFE4F90838F5F02
:1005A000809324010E94380180C08091BC008F702C
:1005B000806879C0809124019091BB00E82FF0E021
:1005C000EB5DFE4F90838F5F809324012091240187
:1005D00030E08091450190E0019728173907BCF47D
:1005E00014C085E0809300011092240147C08091DF
:1005F00024019091BB00E82FF0E0EB5DFE4F90836B
:100600008F5F80932401803210F48FEF01C080E06F
:100610000E944D014CC08091BC008F70806C809313
:10062000BC00E0914601F09147013097F1F18091D3
:10063000240165E271E0099538C084E080930001EF
:10064000E0914801F0914901309731F080E264E097
:1006500071E00995809303011092020180910201DB
:10066000E82FF0E0EC5FFE4F90819093BB008F5F2E
:100670008093020190910301891728F48091BC00B6
:100680008F70806C04C08091BC008F7080688093F4
:10069000BC000DC08091BC008F70806C04C0809144
:1006A000BC008F70806D8093BC0010920001FF91A0
:1006B000EF91BF91AF919F918F917F916F915F91DA
:1006C0004F913F912F910F900FBE0F901F90189553
:1006D0008091000108950F931F93DF93CF930F92A2
:1006E000CDB7DEB78C0169830E94FF006981605C31
:1006F000F80160830F90CF91DF911F910F910895C2
:100700006093580140935901FC01808162E048E503
:1007100051E00E94B2010895FC0169E041810E940C
:10072000800308950F931F93CF93DF93EC0108E5A7
:1007300011E060935801888161E0A8010E94B20134
:10074000888161E0A8010E94F20180915801DF9147
:10075000CF911F910F91089597FB092E05260ED07A
:1007600057FD04D014D00AD0001C38F450954095A1
:10077000309521953F4F4F4F5F4F0895F6F7909575
:100780008095709561957F4F8F4F9F4F0895A1E29F
:100790001A2EAA1BBB1BFD010DC0AA1FBB1FEE1FFB
:1007A000FF1FA217B307E407F50720F0A21BB30B46
:1007B000E40BF50B661F771F881F991F1A9469F7C2
:1007C00060957095809590959B01AC01BD01CF011E
:0607D0000895F894FFCF2C
:00000001FF
